:100000000C942A000C9434000C9434000C943400AA
:100010000C9434000C9434000C9434000C94340090
:100020000C9434000C9434000C9434000C94340080
:100030000C9434000C9434000C9434000C94340070
:100040000C9434000C9434000C9434000C94340060
:100050000C94340011241FBECFE5D8E0DEBFCDBF25
:100060000E9436000C94F2000C940000CF93DF93B2
:100070001F92CDB7DEB78DE4898320E835E240E0FA
:1000800050E060E072E18AE790E00E94540061E095
:1000900070E0CE0101960E94B50061E070E0CE01F3
:1000A00001960E949D00F3CFCF92DF92EF92FF92D4
:1000B0006B017C01E0E4CE1AE2E4DE0AEFE0EE0A36
:1000C000F108E1ECCE16E1EEDE06E4EEEE06F10418
:1000D00060F569017A01E0E6CE1AE9E0DE0AE1089E
:1000E000F108E1E2CE16EBE7DE06EEE1EE06F10402
:1000F000F0F4689413F8969587957795679516941C
:10010000D1F70E94D000BA01A901415051096109FB
:100110007109BB27A72F962F852F80BD49B988E18C
:100120008AB986E880BD80E003C084E001C085E034
:10013000FF90EF90DF90CF900895FC01892B89F01C
:100140006115710581F020E030E006C05D9BFECFB7
:1001500081918CB92F5F3F4F26173707B8F380E0A6
:10016000089582E0089586E00895AC01892BA1F0FE
:100170006115710599F020E030E009C05F9BFECF6A
:10018000FA01E20FF31F9CB190832F5F3F4F2617B8
:100190003707A0F380E0089582E0089586E008958F
:1001A000A1E21A2EAA1BBB1BFD010DC0AA1FBB1F7B
:1001B000EE1FFF1FA217B307E407F50720F0A21BED
:1001C000B30BE40BF50B661F771F881F991F1A945A
:1001D00069F760957095809590959B01AC01BD0184
:0801E000CF010895F894FFCF50
:00000001FF
