:100000000C942A000C943F000C943F000C943F0089
:100010000C943F000C943F000C943F000C943F0064
:100020000C943F000C943F000C943F000C943F0054
:100030000C943F000C943F000C943F000C943F0044
:100040000C943F000C943F000C943F000C943F0034
:100050000C943F0011241FBECFE5D8E0DEBFCDBF1A
:1000600010E0A0E6B0E0EEE2F3E002C005900D92F1
:10007000A038B107D9F70E9441000C9495010C9467
:10008000000010BC83E389B98AB188618AB980B560
:10009000866880BD48E750E0A0E7B0E069E370E023
:1000A000C1E0D0E08D919D919C0114E0369527959B
:1000B0001A95E1F72F7033278F709927F901EE0F0A
:1000C000FF1FE20FF31F8B010E1B1F0BF8012430E3
:1000D000310580F48830910568F49E0101C0220F3B
:1000E0008A95EAF7822F8095918198239183828166
:1000F000822B82834A175B07A9F6D0E8CD2ED0E089
:10010000DD2EE8E7F0E069E370E0A1E0B0E0819186
:1001100091919C01D4E036952795DA95E1F7A901F4
:100120004F7055278F7099278A01000F111F040FF8
:10013000151F7B01E01AF10A4430510568F488303C
:10014000910550F4E70149818D01082E01C0000F8F
:100150000A94EAF7402B4983A901440F551F420F27
:10016000531F8B01041B150B2430310560F48830BC
:10017000910548F49D0101C0220F8A95EAF7E80134
:100180008A81822B8A83CE16DF0609F69BE4692ECC
:1001900029E3A22EB12C01E010E0D8E78D2ED0E0AB
:1001A0009D2EB0E0A0E08BE4782EF40121913191F6
:1001B0004F01B9016F707727F4E036952795FA95CE
:1001C000E1F7C901880F991F820F931FE501C81B32
:1001D000D90B42E050E02430310590F443E050E088
:1001E0006830710568F4C801062E01C0880F0A94B2
:1001F000EAF7982F90958A8189238A8350E040E01E
:1002000080E7C82E80E0D82E90E080E0452B09F0F2
:1002100079C0F601419151916F017A01E4E0F694C1
:10022000E794EA95E1F7F4E0EF16F10408F073C003
:100230002A01EFE04E225524F8E04F16510408F051
:100240006AC0F701EE0FFF1FEE0DFF1D7501EE1ADC
:10025000FF0AF7014081E42FF0E0042C02C0F5957D
:10026000E7950A94E2F7E0FD46C05FE7E8E3F1E0D6
:100270005150E040F040E1F700C00000F70140813C
:10028000E42FF0E002C0F595E7954A94E2F7E0FD2F
:1002900032C0FC01EE0FFF1FEE0FFF1FE05AFF4FB1
:1002A000EA0FFB1F708024303105A8F46830710517
:1002B00090F421E030E0A80101C0440F6A95EAF70C
:1002C0008A81842B8A832130310529F01196A4304C
:1002D000B10509F06ACF671419F05D9BFECF7CB8B9
:1002E000FFEF21EE44E0F15020404040E1F700C034
:1002F0000000672C52CF50E040E001968430910519
:1003000009F084CF2430310508F730E020E0683070
:10031000710588F2DBCFFFE748E351E0F150404040
:0E0320005040E1F700C00000B4CFF894FFCFCA
:10032E003738392F3435362A3132332D43303D2B81
:10033E000400050006000700030002000100000093
:00000001FF
